{
  "contractName": "CarRental",
  "abi": [
    {
      "inputs": [],
      "stateMutability": "nonpayable",
      "type": "constructor"
    },
    {
      "anonymous": false,
      "inputs": [
        {
          "indexed": false,
          "internalType": "uint256",
          "name": "id",
          "type": "uint256"
        },
        {
          "indexed": false,
          "internalType": "string",
          "name": "name",
          "type": "string"
        },
        {
          "indexed": false,
          "internalType": "uint256",
          "name": "pricePerDay",
          "type": "uint256"
        }
      ],
      "name": "CarAdded",
      "type": "event"
    },
    {
      "anonymous": false,
      "inputs": [
        {
          "indexed": false,
          "internalType": "uint256",
          "name": "id",
          "type": "uint256"
        }
      ],
      "name": "CarRemoved",
      "type": "event"
    },
    {
      "anonymous": false,
      "inputs": [
        {
          "indexed": false,
          "internalType": "uint256",
          "name": "id",
          "type": "uint256"
        },
        {
          "indexed": false,
          "internalType": "address",
          "name": "renter",
          "type": "address"
        }
      ],
      "name": "CarRented",
      "type": "event"
    },
    {
      "anonymous": false,
      "inputs": [
        {
          "indexed": false,
          "internalType": "uint256",
          "name": "id",
          "type": "uint256"
        }
      ],
      "name": "CarReturned",
      "type": "event"
    },
    {
      "inputs": [],
      "name": "carCount",
      "outputs": [
        {
          "internalType": "uint256",
          "name": "",
          "type": "uint256"
        }
      ],
      "stateMutability": "view",
      "type": "function"
    },
    {
      "inputs": [
        {
          "internalType": "uint256",
          "name": "",
          "type": "uint256"
        }
      ],
      "name": "cars",
      "outputs": [
        {
          "internalType": "uint256",
          "name": "id",
          "type": "uint256"
        },
        {
          "internalType": "string",
          "name": "name",
          "type": "string"
        },
        {
          "internalType": "uint256",
          "name": "pricePerDay",
          "type": "uint256"
        },
        {
          "internalType": "bool",
          "name": "isRented",
          "type": "bool"
        },
        {
          "internalType": "address",
          "name": "renter",
          "type": "address"
        },
        {
          "internalType": "uint256",
          "name": "rentalEndTime",
          "type": "uint256"
        }
      ],
      "stateMutability": "view",
      "type": "function"
    },
    {
      "inputs": [],
      "name": "owner",
      "outputs": [
        {
          "internalType": "address",
          "name": "",
          "type": "address"
        }
      ],
      "stateMutability": "view",
      "type": "function"
    },
    {
      "inputs": [
        {
          "internalType": "string",
          "name": "_name",
          "type": "string"
        },
        {
          "internalType": "uint256",
          "name": "_pricePerDay",
          "type": "uint256"
        }
      ],
      "name": "addCar",
      "outputs": [],
      "stateMutability": "nonpayable",
      "type": "function"
    },
    {
      "inputs": [
        {
          "internalType": "uint256",
          "name": "_id",
          "type": "uint256"
        }
      ],
      "name": "removeCar",
      "outputs": [],
      "stateMutability": "nonpayable",
      "type": "function"
    },
    {
      "inputs": [
        {
          "internalType": "uint256",
          "name": "_id",
          "type": "uint256"
        },
        {
          "internalType": "uint256",
          "name": "_days",
          "type": "uint256"
        }
      ],
      "name": "rentCar",
      "outputs": [],
      "stateMutability": "payable",
      "type": "function"
    },
    {
      "inputs": [
        {
          "internalType": "uint256",
          "name": "_id",
          "type": "uint256"
        }
      ],
      "name": "returnCar",
      "outputs": [],
      "stateMutability": "nonpayable",
      "type": "function"
    },
    {
      "inputs": [
        {
          "internalType": "uint256",
          "name": "_id",
          "type": "uint256"
        },
        {
          "internalType": "address",
          "name": "_renter",
          "type": "address"
        }
      ],
      "name": "isCarRented",
      "outputs": [
        {
          "internalType": "bool",
          "name": "",
          "type": "bool"
        }
      ],
      "stateMutability": "view",
      "type": "function"
    },
    {
      "inputs": [
        {
          "internalType": "uint256",
          "name": "_id",
          "type": "uint256"
        }
      ],
      "name": "getRenter",
      "outputs": [
        {
          "internalType": "address",
          "name": "",
          "type": "address"
        }
      ],
      "stateMutability": "view",
      "type": "function"
    }
  ],
  "bytecode": "0x6080604052600060015534801561001557600080fd5b50336000806101000a81548173ffffffffffffffffffffffffffffffffffffffff021916908373ffffffffffffffffffffffffffffffffffffffff160217905550611675806100656000396000f3fe6080604052600436106100865760003560e01c80638da5cb5b116100595780638da5cb5b14610145578063965ac0c5146101705780639ca0fc0d14610199578063a956634b146101b5578063f7746e36146101f257610086565b806317f956e01461008b578063297a1f56146100b45780633009c19b146100df5780636a38ddb31461011c575b600080fd5b34801561009757600080fd5b506100b260048036038101906100ad9190610d82565b610234565b005b3480156100c057600080fd5b506100c96103d4565b6040516100d69190611257565b60405180910390f35b3480156100eb57600080fd5b5061010660048036038101906101019190610d82565b6103da565b6040516101139190611121565b60405180910390f35b34801561012857600080fd5b50610143600480360381019061013e9190610d82565b61041a565b005b34801561015157600080fd5b5061015a610610565b6040516101679190611121565b60405180910390f35b34801561017c57600080fd5b5061019760048036038101906101929190610d2e565b610634565b005b6101b360048036038101906101ae9190610de7565b610862565b005b3480156101c157600080fd5b506101dc60048036038101906101d79190610dab565b610a2d565b6040516101e9919061113c565b60405180910390f35b3480156101fe57600080fd5b5061021960048036038101906102149190610d82565b610ac8565b60405161022b969594939291906112d9565b60405180910390f35b60006002600083815260200190815260200160002090508060030160009054906101000a900460ff1661029c576040517f08c379a000000000000000000000000000000000000000000000000000000000815260040161029390611177565b60405180910390fd5b3373ffffffffffffffffffffffffffffffffffffffff168160030160019054906101000a900473ffffffffffffffffffffffffffffffffffffffff1673ffffffffffffffffffffffffffffffffffffffff161461032e576040517f08c379a000000000000000000000000000000000000000000000000000000000815260040161032590611217565b60405180910390fd5b60008160030160006101000a81548160ff02191690831515021790555060008160030160016101000a81548173ffffffffffffffffffffffffffffffffffffffff021916908373ffffffffffffffffffffffffffffffffffffffff160217905550600081600401819055507fd9188e305dee9c23fa1cc9b07058ae9500862da7079cc5ba9df28045ae2f1d1e826040516103c89190611257565b60405180910390a15050565b60015481565b60006002600083815260200190815260200160002060030160019054906101000a900473ffffffffffffffffffffffffffffffffffffffff169050919050565b60008054906101000a900473ffffffffffffffffffffffffffffffffffffffff1673ffffffffffffffffffffffffffffffffffffffff163373ffffffffffffffffffffffffffffffffffffffff16146104a8576040517f08c379a000000000000000000000000000000000000000000000000000000000815260040161049f906111b7565b60405180910390fd5b6000811180156104ba57506001548111155b6104f9576040517f08c379a00000000000000000000000000000000000000000000000000000000081526004016104f090611237565b60405180910390fd5b6002600082815260200190815260200160002060030160009054906101000a900460ff161561055d576040517f08c379a000000000000000000000000000000000000000000000000000000000815260040161055490611197565b60405180910390fd5b600260008281526020019081526020016000206000808201600090556001820160006105899190610bb9565b60028201600090556003820160006101000a81549060ff02191690556003820160016101000a81549073ffffffffffffffffffffffffffffffffffffffff0219169055600482016000905550507f3be6fe42407ad49db2245b58ec66dde8cf64b629871296152efce17988637b95816040516106059190611257565b60405180910390a150565b60008054906101000a900473ffffffffffffffffffffffffffffffffffffffff1681565b60008054906101000a900473ffffffffffffffffffffffffffffffffffffffff1673ffffffffffffffffffffffffffffffffffffffff163373ffffffffffffffffffffffffffffffffffffffff16146106c2576040517f08c379a00000000000000000000000000000000000000000000000000000000081526004016106b9906111b7565b60405180910390fd5b60008111610705576040517f08c379a00000000000000000000000000000000000000000000000000000000081526004016106fc906111f7565b60405180910390fd5b600160008154809291906107189061152a565b91905055506040518060c001604052806001548152602001838152602001828152602001600015158152602001600073ffffffffffffffffffffffffffffffffffffffff16815260200160008152506002600060015481526020019081526020016000206000820151816000015560208201518160010190805190602001906107a2929190610bf9565b506040820151816002015560608201518160030160006101000a81548160ff02191690831515021790555060808201518160030160016101000a81548173ffffffffffffffffffffffffffffffffffffffff021916908373ffffffffffffffffffffffffffffffffffffffff16021790555060a082015181600401559050507fc7e9162c67bcf36a9897d9c95466ec8a031fc9ba47d5a3989c060dd040c2c01560015483836040516108569392919061129b565b60405180910390a15050565b600060026000848152602001908152602001600020905060008311801561088b57506001548311155b6108ca576040517f08c379a00000000000000000000000000000000000000000000000000000000081526004016108c190611237565b60405180910390fd5b8060030160009054906101000a900460ff161561091c576040517f08c379a0000000000000000000000000000000000000000000000000000000008152600401610913906111d7565b60405180910390fd5b81816002015461092c9190611414565b341461096d576040517f08c379a000000000000000000000000000000000000000000000000000000000815260040161096490611157565b60405180910390fd5b60018160030160006101000a81548160ff021916908315150217905550338160030160016101000a81548173ffffffffffffffffffffffffffffffffffffffff021916908373ffffffffffffffffffffffffffffffffffffffff16021790555062015180826109dc9190611414565b426109e791906113be565b81600401819055507f7d0805628acb0d2b0462559b11ff2ca0f8e8aa2b6f9a86e6dea0073285ea07368333604051610a20929190611272565b60405180910390a1505050565b60006002600084815260200190815260200160002060030160009054906101000a900460ff168015610ac057508173ffffffffffffffffffffffffffffffffffffffff166002600085815260200190815260200160002060030160019054906101000a900473ffffffffffffffffffffffffffffffffffffffff1673ffffffffffffffffffffffffffffffffffffffff16145b905092915050565b6002602052806000526040600020600091509050806000015490806001018054610af1906114f8565b80601f0160208091040260200160405190810160405280929190818152602001828054610b1d906114f8565b8015610b6a5780601f10610b3f57610100808354040283529160200191610b6a565b820191906000526020600020905b815481529060010190602001808311610b4d57829003601f168201915b5050505050908060020154908060030160009054906101000a900460ff16908060030160019054906101000a900473ffffffffffffffffffffffffffffffffffffffff16908060040154905086565b508054610bc5906114f8565b6000825580601f10610bd75750610bf6565b601f016020900490600052602060002090810190610bf59190610c7f565b5b50565b828054610c05906114f8565b90600052602060002090601f016020900481019282610c275760008555610c6e565b82601f10610c4057805160ff1916838001178555610c6e565b82800160010185558215610c6e579182015b82811115610c6d578251825591602001919060010190610c52565b5b509050610c7b9190610c7f565b5090565b5b80821115610c98576000816000905550600101610c80565b5090565b6000610caf610caa84611372565b611341565b905082815260208101848484011115610cc757600080fd5b610cd28482856114b6565b509392505050565b600081359050610ce981611611565b92915050565b600082601f830112610d0057600080fd5b8135610d10848260208601610c9c565b91505092915050565b600081359050610d2881611628565b92915050565b60008060408385031215610d4157600080fd5b600083013567ffffffffffffffff811115610d5b57600080fd5b610d6785828601610cef565b9250506020610d7885828601610d19565b9150509250929050565b600060208284031215610d9457600080fd5b6000610da284828501610d19565b91505092915050565b60008060408385031215610dbe57600080fd5b6000610dcc85828601610d19565b9250506020610ddd85828601610cda565b9150509250929050565b60008060408385031215610dfa57600080fd5b6000610e0885828601610d19565b9250506020610e1985828601610d19565b9150509250929050565b610e2c8161146e565b82525050565b610e3b81611480565b82525050565b6000610e4c826113a2565b610e5681856113ad565b9350610e668185602086016114c5565b610e6f81611600565b840191505092915050565b6000610e876011836113ad565b91507f496e636f7272656374207061796d656e740000000000000000000000000000006000830152602082019050919050565b6000610ec76011836113ad565b91507f436172206973206e6f742072656e7465640000000000000000000000000000006000830152602082019050919050565b6000610f07602c836113ad565b91507f43616e6e6f742072656d6f76652061206361722074686174206973206375727260008301527f656e746c792072656e74656400000000000000000000000000000000000000006020830152604082019050919050565b6000610f6d6026836113ad565b91507f4f6e6c7920746865206f776e65722063616e20706572666f726d20746869732060008301527f616374696f6e00000000000000000000000000000000000000000000000000006020830152604082019050919050565b6000610fd36015836113ad565b91507f43617220697320616c72656164792072656e74656400000000000000000000006000830152602082019050919050565b60006110136027836113ad565b91507f50726963652070657220646179206d757374206265206120706f73697469766560008301527f206e756d626572000000000000000000000000000000000000000000000000006020830152604082019050919050565b60006110796022836113ad565b91507f4f6e6c79207468652072656e7465722063616e2072657475726e20746865206360008301527f61720000000000000000000000000000000000000000000000000000000000006020830152604082019050919050565b60006110df6011836113ad565b91507f43617220494420697320696e76616c69640000000000000000000000000000006000830152602082019050919050565b61111b816114ac565b82525050565b60006020820190506111366000830184610e23565b92915050565b60006020820190506111516000830184610e32565b92915050565b6000602082019050818103600083015261117081610e7a565b9050919050565b6000602082019050818103600083015261119081610eba565b9050919050565b600060208201905081810360008301526111b081610efa565b9050919050565b600060208201905081810360008301526111d081610f60565b9050919050565b600060208201905081810360008301526111f081610fc6565b9050919050565b6000602082019050818103600083015261121081611006565b9050919050565b600060208201905081810360008301526112308161106c565b9050919050565b60006020820190508181036000830152611250816110d2565b9050919050565b600060208201905061126c6000830184611112565b92915050565b60006040820190506112876000830185611112565b6112946020830184610e23565b9392505050565b60006060820190506112b06000830186611112565b81810360208301526112c28185610e41565b90506112d16040830184611112565b949350505050565b600060c0820190506112ee6000830189611112565b81810360208301526113008188610e41565b905061130f6040830187611112565b61131c6060830186610e32565b6113296080830185610e23565b61133660a0830184611112565b979650505050505050565b6000604051905081810181811067ffffffffffffffff82111715611368576113676115d1565b5b8060405250919050565b600067ffffffffffffffff82111561138d5761138c6115d1565b5b601f19601f8301169050602081019050919050565b600081519050919050565b600082825260208201905092915050565b60006113c9826114ac565b91506113d4836114ac565b9250827fffffffffffffffffffffffffffffffffffffffffffffffffffffffffffffffff0382111561140957611408611573565b5b828201905092915050565b600061141f826114ac565b915061142a836114ac565b9250817fffffffffffffffffffffffffffffffffffffffffffffffffffffffffffffffff048311821515161561146357611462611573565b5b828202905092915050565b60006114798261148c565b9050919050565b60008115159050919050565b600073ffffffffffffffffffffffffffffffffffffffff82169050919050565b6000819050919050565b82818337600083830152505050565b60005b838110156114e35780820151818401526020810190506114c8565b838111156114f2576000848401525b50505050565b6000600282049050600182168061151057607f821691505b60208210811415611524576115236115a2565b5b50919050565b6000611535826114ac565b91507fffffffffffffffffffffffffffffffffffffffffffffffffffffffffffffffff82141561156857611567611573565b5b600182019050919050565b7f4e487b7100000000000000000000000000000000000000000000000000000000600052601160045260246000fd5b7f4e487b7100000000000000000000000000000000000000000000000000000000600052602260045260246000fd5b7f4e487b7100000000000000000000000000000000000000000000000000000000600052604160045260246000fd5b6000601f19601f8301169050919050565b61161a8161146e565b811461162557600080fd5b50565b611631816114ac565b811461163c57600080fd5b5056fea2646970667358221220a0f39137105a4e64077d957f0d85a22fd10750f8d087306fdaa54433e0221e7664736f6c63430008000033",
  "immutableReferences": {},
  "source": "// SPDX-License-Identifier: MIT\npragma solidity >=0.4.22 <0.9.0;\n\ncontract CarRental {\n    // Owner of the contract\n    address public owner;\n\n    // Number of cars available\n    uint public carCount = 0;\n\n    // Struct to represent a car\n    struct Car {\n        uint id;\n        string name;\n        uint pricePerDay;\n        bool isRented;\n        address renter; // Address of the renter\n        uint rentalEndTime; // Timestamp of when the rental ends\n    }\n\n    // Mapping of car IDs to Car structs\n    mapping(uint => Car) public cars;\n\n    // Events\n    event CarAdded(uint id, string name, uint pricePerDay);\n    event CarRented(uint id, address renter);\n    event CarReturned(uint id);\n    event CarRemoved(uint id);\n\n    // Modifier to restrict access to the owner\n    modifier onlyOwner() {\n        require(msg.sender == owner, \"Only the owner can perform this action\");\n        _;\n    }\n\n    // Constructor to set the owner of the contract\n    constructor() {\n        owner = msg.sender;\n    }\n\n    // Function to add a new car, can only be called by the owner\n    function addCar(string memory _name, uint _pricePerDay) public onlyOwner {\n        require(_pricePerDay > 0, \"Price per day must be a positive number\");\n        carCount++;\n        cars[carCount] = Car(carCount, _name, _pricePerDay, false, address(0), 0);\n        emit CarAdded(carCount, _name, _pricePerDay);\n    }\n\n    // Function to remove a car, can only be called by the owner\n    function removeCar(uint _id) public onlyOwner {\n        require(_id > 0 && _id <= carCount, \"Car ID is invalid\");\n        require(!cars[_id].isRented, \"Cannot remove a car that is currently rented\");\n\n        // Remove the car from the mapping\n        delete cars[_id];\n\n        // Emit event\n        emit CarRemoved(_id);\n    }\n\n    // Function to rent a car\n    function rentCar(uint _id, uint _days) public payable {\n        Car storage car = cars[_id];\n        require(_id > 0 && _id <= carCount, \"Car ID is invalid\");\n        require(!car.isRented, \"Car is already rented\");\n        require(msg.value == car.pricePerDay * _days, \"Incorrect payment\");\n\n        car.isRented = true;\n        car.renter = msg.sender;\n        car.rentalEndTime = block.timestamp + (_days * 1 days);\n        emit CarRented(_id, msg.sender);\n    }\n\n    // Function to return a car\n    function returnCar(uint _id) public {\n        Car storage car = cars[_id];\n        require(car.isRented, \"Car is not rented\");\n        require(car.renter == msg.sender, \"Only the renter can return the car\");\n\n        car.isRented = false;\n        car.renter = address(0);\n        car.rentalEndTime = 0;\n        emit CarReturned(_id);\n    }\n\n    // Function to check if a car is rented by a specific address\n    function isCarRented(uint _id, address _renter) public view returns (bool) {\n        return cars[_id].isRented && cars[_id].renter == _renter;\n    }\n\n    // Function to get the renter of a car\n    function getRenter(uint _id) public view returns (address) {\n        return cars[_id].renter;\n    }\n}\n",
  "sourcePath": "/Users/muhammad/Desktop/Car_Rental_Final_Blockchain-1/contracts/CarRental.sol",
  "compiler": {
    "name": "solc",
    "version": "0.8.0+commit.c7dfd78e.Emscripten.clang"
  },
  "schemaVersion": "3.4.16",
  "updatedAt": "2024-05-21T17:37:41.259Z",
  "devdoc": {
    "kind": "dev",
    "methods": {},
    "version": 1
  },
  "userdoc": {
    "kind": "user",
    "methods": {},
    "version": 1
  }
}