{
  "contractName": "CarRental",
  "abi": [
    {
      "inputs": [],
      "stateMutability": "nonpayable",
      "type": "constructor"
    },
    {
      "anonymous": false,
      "inputs": [
        {
          "indexed": false,
          "internalType": "uint256",
          "name": "id",
          "type": "uint256"
        },
        {
          "indexed": false,
          "internalType": "string",
          "name": "name",
          "type": "string"
        },
        {
          "indexed": false,
          "internalType": "uint256",
          "name": "pricePerDay",
          "type": "uint256"
        }
      ],
      "name": "CarAdded",
      "type": "event"
    },
    {
      "anonymous": false,
      "inputs": [
        {
          "indexed": false,
          "internalType": "uint256",
          "name": "id",
          "type": "uint256"
        },
        {
          "indexed": false,
          "internalType": "address",
          "name": "renter",
          "type": "address"
        }
      ],
      "name": "CarRented",
      "type": "event"
    },
    {
      "anonymous": false,
      "inputs": [
        {
          "indexed": false,
          "internalType": "uint256",
          "name": "id",
          "type": "uint256"
        }
      ],
      "name": "CarReturned",
      "type": "event"
    },
    {
      "inputs": [],
      "name": "carCount",
      "outputs": [
        {
          "internalType": "uint256",
          "name": "",
          "type": "uint256"
        }
      ],
      "stateMutability": "view",
      "type": "function",
      "constant": true
    },
    {
      "inputs": [
        {
          "internalType": "uint256",
          "name": "",
          "type": "uint256"
        }
      ],
      "name": "cars",
      "outputs": [
        {
          "internalType": "uint256",
          "name": "id",
          "type": "uint256"
        },
        {
          "internalType": "string",
          "name": "name",
          "type": "string"
        },
        {
          "internalType": "uint256",
          "name": "pricePerDay",
          "type": "uint256"
        },
        {
          "internalType": "bool",
          "name": "isRented",
          "type": "bool"
        },
        {
          "internalType": "address",
          "name": "renter",
          "type": "address"
        },
        {
          "internalType": "uint256",
          "name": "rentalEndTime",
          "type": "uint256"
        }
      ],
      "stateMutability": "view",
      "type": "function",
      "constant": true
    },
    {
      "inputs": [],
      "name": "owner",
      "outputs": [
        {
          "internalType": "address",
          "name": "",
          "type": "address"
        }
      ],
      "stateMutability": "view",
      "type": "function",
      "constant": true
    },
    {
      "inputs": [
        {
          "internalType": "string",
          "name": "_name",
          "type": "string"
        },
        {
          "internalType": "uint256",
          "name": "_pricePerDay",
          "type": "uint256"
        }
      ],
      "name": "addCar",
      "outputs": [],
      "stateMutability": "nonpayable",
      "type": "function"
    },
    {
      "inputs": [
        {
          "internalType": "uint256",
          "name": "_id",
          "type": "uint256"
        },
        {
          "internalType": "uint256",
          "name": "_days",
          "type": "uint256"
        }
      ],
      "name": "rentCar",
      "outputs": [],
      "stateMutability": "payable",
      "type": "function",
      "payable": true
    },
    {
      "inputs": [
        {
          "internalType": "uint256",
          "name": "_id",
          "type": "uint256"
        }
      ],
      "name": "returnCar",
      "outputs": [],
      "stateMutability": "nonpayable",
      "type": "function"
    },
    {
      "inputs": [
        {
          "internalType": "uint256",
          "name": "_id",
          "type": "uint256"
        },
        {
          "internalType": "address",
          "name": "_renter",
          "type": "address"
        }
      ],
      "name": "isCarRented",
      "outputs": [
        {
          "internalType": "bool",
          "name": "",
          "type": "bool"
        }
      ],
      "stateMutability": "view",
      "type": "function",
      "constant": true
    },
    {
      "inputs": [
        {
          "internalType": "uint256",
          "name": "_id",
          "type": "uint256"
        }
      ],
      "name": "getRenter",
      "outputs": [
        {
          "internalType": "address",
          "name": "",
          "type": "address"
        }
      ],
      "stateMutability": "view",
      "type": "function",
      "constant": true
    }
  ],
  "bytecode": "0x6080604052600060015534801561001557600080fd5b50336000806101000a81548173ffffffffffffffffffffffffffffffffffffffff021916908373ffffffffffffffffffffffffffffffffffffffff1602179055506112bc806100656000396000f3fe60806040526004361061007b5760003560e01c8063965ac0c51161004e578063965ac0c51461013c5780639ca0fc0d14610165578063a956634b14610181578063f7746e36146101be5761007b565b806317f956e014610080578063297a1f56146100a95780633009c19b146100d45780638da5cb5b14610111575b600080fd5b34801561008c57600080fd5b506100a760048036038101906100a29190610ad5565b610200565b005b3480156100b557600080fd5b506100be6103a0565b6040516100cb9190610e9e565b60405180910390f35b3480156100e057600080fd5b506100fb60048036038101906100f69190610ad5565b6103a6565b6040516101089190610da8565b60405180910390f35b34801561011d57600080fd5b506101266103e6565b6040516101339190610da8565b60405180910390f35b34801561014857600080fd5b50610163600480360381019061015e9190610a81565b61040a565b005b61017f600480360381019061017a9190610b3a565b6105f5565b005b34801561018d57600080fd5b506101a860048036038101906101a39190610afe565b6107c0565b6040516101b59190610dc3565b60405180910390f35b3480156101ca57600080fd5b506101e560048036038101906101e09190610ad5565b61085b565b6040516101f796959493929190610f20565b60405180910390f35b60006002600083815260200190815260200160002090508060030160009054906101000a900460ff16610268576040517f08c379a000000000000000000000000000000000000000000000000000000000815260040161025f90610dfe565b60405180910390fd5b3373ffffffffffffffffffffffffffffffffffffffff168160030160019054906101000a900473ffffffffffffffffffffffffffffffffffffffff1673ffffffffffffffffffffffffffffffffffffffff16146102fa576040517f08c379a00000000000000000000000000000000000000000000000000000000081526004016102f190610e5e565b60405180910390fd5b60008160030160006101000a81548160ff02191690831515021790555060008160030160016101000a81548173ffffffffffffffffffffffffffffffffffffffff021916908373ffffffffffffffffffffffffffffffffffffffff160217905550600081600401819055507fd9188e305dee9c23fa1cc9b07058ae9500862da7079cc5ba9df28045ae2f1d1e826040516103949190610e9e565b60405180910390a15050565b60015481565b60006002600083815260200190815260200160002060030160019054906101000a900473ffffffffffffffffffffffffffffffffffffffff169050919050565b60008054906101000a900473ffffffffffffffffffffffffffffffffffffffff1681565b60008054906101000a900473ffffffffffffffffffffffffffffffffffffffff1673ffffffffffffffffffffffffffffffffffffffff163373ffffffffffffffffffffffffffffffffffffffff1614610498576040517f08c379a000000000000000000000000000000000000000000000000000000000815260040161048f90610e1e565b60405180910390fd5b600160008154809291906104ab90611171565b91905055506040518060c001604052806001548152602001838152602001828152602001600015158152602001600073ffffffffffffffffffffffffffffffffffffffff168152602001600081525060026000600154815260200190815260200160002060008201518160000155602082015181600101908051906020019061053592919061094c565b506040820151816002015560608201518160030160006101000a81548160ff02191690831515021790555060808201518160030160016101000a81548173ffffffffffffffffffffffffffffffffffffffff021916908373ffffffffffffffffffffffffffffffffffffffff16021790555060a082015181600401559050507fc7e9162c67bcf36a9897d9c95466ec8a031fc9ba47d5a3989c060dd040c2c01560015483836040516105e993929190610ee2565b60405180910390a15050565b600060026000848152602001908152602001600020905060008311801561061e57506001548311155b61065d576040517f08c379a000000000000000000000000000000000000000000000000000000000815260040161065490610e7e565b60405180910390fd5b8060030160009054906101000a900460ff16156106af576040517f08c379a00000000000000000000000000000000000000000000000000000000081526004016106a690610e3e565b60405180910390fd5b8181600201546106bf919061105b565b3414610700576040517f08c379a00000000000000000000000000000000000000000000000000000000081526004016106f790610dde565b60405180910390fd5b60018160030160006101000a81548160ff021916908315150217905550338160030160016101000a81548173ffffffffffffffffffffffffffffffffffffffff021916908373ffffffffffffffffffffffffffffffffffffffff160217905550620151808261076f919061105b565b4261077a9190611005565b81600401819055507f7d0805628acb0d2b0462559b11ff2ca0f8e8aa2b6f9a86e6dea0073285ea073683336040516107b3929190610eb9565b60405180910390a1505050565b60006002600084815260200190815260200160002060030160009054906101000a900460ff16801561085357508173ffffffffffffffffffffffffffffffffffffffff166002600085815260200190815260200160002060030160019054906101000a900473ffffffffffffffffffffffffffffffffffffffff1673ffffffffffffffffffffffffffffffffffffffff16145b905092915050565b60026020528060005260406000206000915090508060000154908060010180546108849061113f565b80601f01602080910402602001604051908101604052809291908181526020018280546108b09061113f565b80156108fd5780601f106108d2576101008083540402835291602001916108fd565b820191906000526020600020905b8154815290600101906020018083116108e057829003601f168201915b5050505050908060020154908060030160009054906101000a900460ff16908060030160019054906101000a900473ffffffffffffffffffffffffffffffffffffffff16908060040154905086565b8280546109589061113f565b90600052602060002090601f01602090048101928261097a57600085556109c1565b82601f1061099357805160ff19168380011785556109c1565b828001600101855582156109c1579182015b828111156109c05782518255916020019190600101906109a5565b5b5090506109ce91906109d2565b5090565b5b808211156109eb5760008160009055506001016109d3565b5090565b6000610a026109fd84610fb9565b610f88565b905082815260208101848484011115610a1a57600080fd5b610a258482856110fd565b509392505050565b600081359050610a3c81611258565b92915050565b600082601f830112610a5357600080fd5b8135610a638482602086016109ef565b91505092915050565b600081359050610a7b8161126f565b92915050565b60008060408385031215610a9457600080fd5b600083013567ffffffffffffffff811115610aae57600080fd5b610aba85828601610a42565b9250506020610acb85828601610a6c565b9150509250929050565b600060208284031215610ae757600080fd5b6000610af584828501610a6c565b91505092915050565b60008060408385031215610b1157600080fd5b6000610b1f85828601610a6c565b9250506020610b3085828601610a2d565b9150509250929050565b60008060408385031215610b4d57600080fd5b6000610b5b85828601610a6c565b9250506020610b6c85828601610a6c565b9150509250929050565b610b7f816110b5565b82525050565b610b8e816110c7565b82525050565b6000610b9f82610fe9565b610ba98185610ff4565b9350610bb981856020860161110c565b610bc281611247565b840191505092915050565b6000610bda601183610ff4565b91507f496e636f7272656374207061796d656e740000000000000000000000000000006000830152602082019050919050565b6000610c1a601183610ff4565b91507f436172206973206e6f742072656e7465640000000000000000000000000000006000830152602082019050919050565b6000610c5a602683610ff4565b91507f4f6e6c7920746865206f776e65722063616e20706572666f726d20746869732060008301527f616374696f6e00000000000000000000000000000000000000000000000000006020830152604082019050919050565b6000610cc0601583610ff4565b91507f43617220697320616c72656164792072656e74656400000000000000000000006000830152602082019050919050565b6000610d00602283610ff4565b91507f4f6e6c79207468652072656e7465722063616e2072657475726e20746865206360008301527f61720000000000000000000000000000000000000000000000000000000000006020830152604082019050919050565b6000610d66601183610ff4565b91507f43617220494420697320696e76616c69640000000000000000000000000000006000830152602082019050919050565b610da2816110f3565b82525050565b6000602082019050610dbd6000830184610b76565b92915050565b6000602082019050610dd86000830184610b85565b92915050565b60006020820190508181036000830152610df781610bcd565b9050919050565b60006020820190508181036000830152610e1781610c0d565b9050919050565b60006020820190508181036000830152610e3781610c4d565b9050919050565b60006020820190508181036000830152610e5781610cb3565b9050919050565b60006020820190508181036000830152610e7781610cf3565b9050919050565b60006020820190508181036000830152610e9781610d59565b9050919050565b6000602082019050610eb36000830184610d99565b92915050565b6000604082019050610ece6000830185610d99565b610edb6020830184610b76565b9392505050565b6000606082019050610ef76000830186610d99565b8181036020830152610f098185610b94565b9050610f186040830184610d99565b949350505050565b600060c082019050610f356000830189610d99565b8181036020830152610f478188610b94565b9050610f566040830187610d99565b610f636060830186610b85565b610f706080830185610b76565b610f7d60a0830184610d99565b979650505050505050565b6000604051905081810181811067ffffffffffffffff82111715610faf57610fae611218565b5b8060405250919050565b600067ffffffffffffffff821115610fd457610fd3611218565b5b601f19601f8301169050602081019050919050565b600081519050919050565b600082825260208201905092915050565b6000611010826110f3565b915061101b836110f3565b9250827fffffffffffffffffffffffffffffffffffffffffffffffffffffffffffffffff038211156110505761104f6111ba565b5b828201905092915050565b6000611066826110f3565b9150611071836110f3565b9250817fffffffffffffffffffffffffffffffffffffffffffffffffffffffffffffffff04831182151516156110aa576110a96111ba565b5b828202905092915050565b60006110c0826110d3565b9050919050565b60008115159050919050565b600073ffffffffffffffffffffffffffffffffffffffff82169050919050565b6000819050919050565b82818337600083830152505050565b60005b8381101561112a57808201518184015260208101905061110f565b83811115611139576000848401525b50505050565b6000600282049050600182168061115757607f821691505b6020821081141561116b5761116a6111e9565b5b50919050565b600061117c826110f3565b91507fffffffffffffffffffffffffffffffffffffffffffffffffffffffffffffffff8214156111af576111ae6111ba565b5b600182019050919050565b7f4e487b7100000000000000000000000000000000000000000000000000000000600052601160045260246000fd5b7f4e487b7100000000000000000000000000000000000000000000000000000000600052602260045260246000fd5b7f4e487b7100000000000000000000000000000000000000000000000000000000600052604160045260246000fd5b6000601f19601f8301169050919050565b611261816110b5565b811461126c57600080fd5b50565b611278816110f3565b811461128357600080fd5b5056fea264697066735822122083a317965ae0fc3ebced97a695215c4770192dd94aeac8cce8f232c216eb4b1464736f6c63430008000033",
  "immutableReferences": {},
  "source": "// SPDX-License-Identifier: MIT\npragma solidity >=0.4.22 <0.9.0;\n\ncontract CarRental {\n    // Owner of the contract\n    address public owner;\n\n    // Number of cars available\n    uint public carCount = 0;\n\n    // Struct to represent a car\n    struct Car {\n        uint id;\n        string name;\n        uint pricePerDay;\n        bool isRented;\n        address renter; // Address of the renter\n        uint rentalEndTime; // Timestamp of when the rental ends\n    }\n\n    // Mapping of car IDs to Car structs\n    mapping(uint => Car) public cars;\n\n    // Events\n    event CarAdded(uint id, string name, uint pricePerDay);\n    event CarRented(uint id, address renter);\n    event CarReturned(uint id);\n\n    // Modifier to restrict access to the owner\n    modifier onlyOwner() {\n        require(msg.sender == owner, \"Only the owner can perform this action\");\n        _;\n    }\n\n    // Constructor to set the owner of the contract\n    constructor() {\n        owner = msg.sender;\n    }\n\n    // Function to add a new car, can only be called by the owner\n    function addCar(string memory _name, uint _pricePerDay) public onlyOwner {\n        carCount++;\n        cars[carCount] = Car(carCount, _name, _pricePerDay, false, address(0), 0);\n        emit CarAdded(carCount, _name, _pricePerDay);\n    }\n\n    // Function to rent a car\n    function rentCar(uint _id, uint _days) public payable {\n        Car storage car = cars[_id];\n        require(_id > 0 && _id <= carCount, \"Car ID is invalid\");\n        require(!car.isRented, \"Car is already rented\");\n        require(msg.value == car.pricePerDay * _days, \"Incorrect payment\");\n\n        car.isRented = true;\n        car.renter = msg.sender;\n        car.rentalEndTime = block.timestamp + (_days * 1 days);\n        emit CarRented(_id, msg.sender);\n    }\n\n    // Function to return a car\n    function returnCar(uint _id) public {\n        Car storage car = cars[_id];\n        require(car.isRented, \"Car is not rented\");\n        require(car.renter == msg.sender, \"Only the renter can return the car\");\n\n        car.isRented = false;\n        car.renter = address(0);\n        car.rentalEndTime = 0;\n        emit CarReturned(_id);\n    }\n\n    // Function to check if a car is rented by a specific address\n    function isCarRented(uint _id, address _renter) public view returns (bool) {\n        return cars[_id].isRented && cars[_id].renter == _renter;\n    }\n\n    // Function to get the renter of a car\n    function getRenter(uint _id) public view returns (address) {\n        return cars[_id].renter;\n    }\n}\n",
  "sourcePath": "/Users/muhammad/Desktop/Car_Rental_Final_Blockchain-1/contracts/CarRental.sol",
  "compiler": {
    "name": "solc",
    "version": "0.8.0+commit.c7dfd78e.Emscripten.clang"
  },
  "schemaVersion": "3.4.16",
  "updatedAt": "2024-05-20T01:38:02.136Z",
  "networkType": "ethereum",
  "devdoc": {
    "kind": "dev",
    "methods": {},
    "version": 1
  },
  "userdoc": {
    "kind": "user",
    "methods": {},
    "version": 1
  }
}